{"abi":[{"type":"receive","stateMutability":"payable"},{"type":"function","name":"CLAWD","inputs":[],"outputs":[{"name":"","type":"address","internalType":"contract IERC20"}],"stateMutability":"view"},{"type":"function","name":"DEAD","inputs":[],"outputs":[{"name":"","type":"address","internalType":"address"}],"stateMutability":"view"},{"type":"function","name":"FEE_USDC_WETH","inputs":[],"outputs":[{"name":"","type":"uint24","internalType":"uint24"}],"stateMutability":"view"},{"type":"function","name":"FEE_WETH_CLAWD","inputs":[],"outputs":[{"name":"","type":"uint24","internalType":"uint24"}],"stateMutability":"view"},{"type":"function","name":"ROUTER","inputs":[],"outputs":[{"name":"","type":"address","internalType":"contract IV3SwapRouter"}],"stateMutability":"view"},{"type":"function","name":"USDC","inputs":[],"outputs":[{"name":"","type":"address","internalType":"contract IERC20"}],"stateMutability":"view"},{"type":"function","name":"WETH","inputs":[],"outputs":[{"name":"","type":"address","internalType":"contract IERC20"}],"stateMutability":"view"},{"type":"function","name":"execute","inputs":[],"outputs":[],"stateMutability":"nonpayable"},{"type":"event","name":"Burned","inputs":[{"name":"clawdAmount","type":"uint256","indexed":false,"internalType":"uint256"}],"anonymous":false},{"type":"error","name":"SafeERC20FailedOperation","inputs":[{"name":"token","type":"address","internalType":"address"}]}],"bytecode":{"object":"0x6080604052348015600e575f5ffd5b50610e838061001c5f395ff3fe60806040526004361061007e575f3560e01c80639a88c17e1161004d5780639a88c17e1461011d5780639ca9548014610147578063ad5c464814610171578063b59b7f471461019b57610085565b806303fd2a451461008957806332fe7b26146100b357806361461954146100dd57806389a30271146100f357610085565b3661008557005b5f5ffd5b348015610094575f5ffd5b5061009d6101c5565b6040516100aa91906109bf565b60405180910390f35b3480156100be575f5ffd5b506100c76101cb565b6040516100d49190610a33565b60405180910390f35b3480156100e8575f5ffd5b506100f16101e3565b005b3480156100fe575f5ffd5b50610107610763565b6040516101149190610a6c565b60405180910390f35b348015610128575f5ffd5b5061013161077b565b60405161013e9190610aa2565b60405180910390f35b348015610152575f5ffd5b5061015b610781565b6040516101689190610aa2565b60405180910390f35b34801561017c575f5ffd5b50610185610787565b6040516101929190610a6c565b60405180910390f35b3480156101a6575f5ffd5b506101af61079f565b6040516101bc9190610a6c565b60405180910390f35b61dead81565b732626664c2603336e57b271c5c0b26f421741e48181565b5f5f90505f4790505f81111561040d5773420000000000000000000000000000000000000673ffffffffffffffffffffffffffffffffffffffff1663d0e30db0826040518263ffffffff1660e01b81526004015f604051808303818588803b15801561024d575f5ffd5b505af115801561025f573d5f5f3e3d5ffd5b50505050506102b7732626664c2603336e57b271c5c0b26f421741e4818273420000000000000000000000000000000000000673ffffffffffffffffffffffffffffffffffffffff166107b79092919063ffffffff16565b732626664c2603336e57b271c5c0b26f421741e48173ffffffffffffffffffffffffffffffffffffffff166304e45aaf6040518060e0016040528073420000000000000000000000000000000000000673ffffffffffffffffffffffffffffffffffffffff168152602001739f86db9fc6f7c9408e8fda3ff8ce4e78ac7a6b0773ffffffffffffffffffffffffffffffffffffffff16815260200161271062ffffff16815260200161dead73ffffffffffffffffffffffffffffffffffffffff1681526020018481526020015f81526020015f73ffffffffffffffffffffffffffffffffffffffff168152506040518263ffffffff1660e01b81526004016103bf9190610b8c565b6020604051808303815f875af11580156103db573d5f5f3e3d5ffd5b505050506040513d601f19601f820116820180604052508101906103ff9190610bd3565b8261040a9190610c2b565b91505b5f73833589fcd6edb6e08f4c7c32d4f71b54bda0291373ffffffffffffffffffffffffffffffffffffffff166370a08231306040518263ffffffff1660e01b815260040161045b91906109bf565b602060405180830381865afa158015610476573d5f5f3e3d5ffd5b505050506040513d601f19601f8201168201806040525081019061049a9190610bd3565b90505f811115610636576104f7732626664c2603336e57b271c5c0b26f421741e4818273833589fcd6edb6e08f4c7c32d4f71b54bda0291373ffffffffffffffffffffffffffffffffffffffff166107b79092919063ffffffff16565b5f73833589fcd6edb6e08f4c7c32d4f71b54bda029136101f4734200000000000000000000000000000000000006612710739f86db9fc6f7c9408e8fda3ff8ce4e78ac7a6b07604051602001610551959493929190610cd7565b6040516020818303038152906040529050732626664c2603336e57b271c5c0b26f421741e48173ffffffffffffffffffffffffffffffffffffffff1663b858183f604051806080016040528084815260200161dead73ffffffffffffffffffffffffffffffffffffffff1681526020018581526020015f8152506040518263ffffffff1660e01b81526004016105e79190610e05565b6020604051808303815f875af1158015610603573d5f5f3e3d5ffd5b505050506040513d601f19601f820116820180604052508101906106279190610bd3565b846106329190610c2b565b9350505b5f739f86db9fc6f7c9408e8fda3ff8ce4e78ac7a6b0773ffffffffffffffffffffffffffffffffffffffff166370a08231306040518263ffffffff1660e01b815260040161068491906109bf565b602060405180830381865afa15801561069f573d5f5f3e3d5ffd5b505050506040513d601f19601f820116820180604052508101906106c39190610bd3565b90505f81111561071d5761070e61dead82739f86db9fc6f7c9408e8fda3ff8ce4e78ac7a6b0773ffffffffffffffffffffffffffffffffffffffff166108699092919063ffffffff16565b808461071a9190610c2b565b93505b5f84111561075d577fd83c63197e8e676d80ab0122beba9a9d20f3828839e9a1d6fe81d242e9cd7e6e846040516107549190610e34565b60405180910390a15b50505050565b73833589fcd6edb6e08f4c7c32d4f71b54bda0291381565b61271081565b6101f481565b73420000000000000000000000000000000000000681565b739f86db9fc6f7c9408e8fda3ff8ce4e78ac7a6b0781565b6107c38383835f6108bc565b610864576107d483835f60016108bc565b61081557826040517f5274afe700000000000000000000000000000000000000000000000000000000815260040161080c91906109bf565b60405180910390fd5b61082283838360016108bc565b61086357826040517f5274afe700000000000000000000000000000000000000000000000000000000815260040161085a91906109bf565b60405180910390fd5b5b505050565b610876838383600161091e565b6108b757826040517f5274afe70000000000000000000000000000000000000000000000000000000081526004016108ae91906109bf565b60405180910390fd5b505050565b5f5f63095ea7b360e01b9050604051815f525f1960601c86166004528460245260205f60445f5f8b5af1925060015f51148316610910578383151615610904573d5f823e3d81fd5b5f873b113d1516831692505b806040525050949350505050565b5f5f63a9059cbb60e01b9050604051815f525f1960601c86166004528460245260205f60445f5f8b5af1925060015f51148316610972578383151615610966573d5f823e3d81fd5b5f873b113d1516831692505b806040525050949350505050565b5f73ffffffffffffffffffffffffffffffffffffffff82169050919050565b5f6109a982610980565b9050919050565b6109b98161099f565b82525050565b5f6020820190506109d25f8301846109b0565b92915050565b5f819050919050565b5f6109fb6109f66109f184610980565b6109d8565b610980565b9050919050565b5f610a0c826109e1565b9050919050565b5f610a1d82610a02565b9050919050565b610a2d81610a13565b82525050565b5f602082019050610a465f830184610a24565b92915050565b5f610a5682610a02565b9050919050565b610a6681610a4c565b82525050565b5f602082019050610a7f5f830184610a5d565b92915050565b5f62ffffff82169050919050565b610a9c81610a85565b82525050565b5f602082019050610ab55f830184610a93565b92915050565b610ac48161099f565b82525050565b610ad381610a85565b82525050565b5f819050919050565b610aeb81610ad9565b82525050565b610afa81610980565b82525050565b60e082015f820151610b145f850182610abb565b506020820151610b276020850182610abb565b506040820151610b3a6040850182610aca565b506060820151610b4d6060850182610abb565b506080820151610b606080850182610ae2565b5060a0820151610b7360a0850182610ae2565b5060c0820151610b8660c0850182610af1565b50505050565b5f60e082019050610b9f5f830184610b00565b92915050565b5f5ffd5b610bb281610ad9565b8114610bbc575f5ffd5b50565b5f81519050610bcd81610ba9565b92915050565b5f60208284031215610be857610be7610ba5565b5b5f610bf584828501610bbf565b91505092915050565b7f4e487b71000000000000000000000000000000000000000000000000000000005f52601160045260245ffd5b5f610c3582610ad9565b9150610c4083610ad9565b9250828201905080821115610c5857610c57610bfe565b5b92915050565b5f8160601b9050919050565b5f610c7482610c5e565b9050919050565b5f610c8582610c6a565b9050919050565b610c9d610c988261099f565b610c7b565b82525050565b5f8160e81b9050919050565b5f610cb982610ca3565b9050919050565b610cd1610ccc82610a85565b610caf565b82525050565b5f610ce28288610c8c565b601482019150610cf28287610cc0565b600382019150610d028286610c8c565b601482019150610d128285610cc0565b600382019150610d228284610c8c565b6014820191508190509695505050505050565b5f81519050919050565b5f82825260208201905092915050565b8281835e5f83830152505050565b5f601f19601f8301169050919050565b5f610d7782610d35565b610d818185610d3f565b9350610d91818560208601610d4f565b610d9a81610d5d565b840191505092915050565b5f608083015f8301518482035f860152610dbf8282610d6d565b9150506020830151610dd46020860182610abb565b506040830151610de76040860182610ae2565b506060830151610dfa6060860182610ae2565b508091505092915050565b5f6020820190508181035f830152610e1d8184610da5565b905092915050565b610e2e81610ad9565b82525050565b5f602082019050610e475f830184610e25565b9291505056fea2646970667358221220f9eb4be73c9bc9e1dbd3610c0c6a4799db547a8d20ceead609ca52966cf66d9764736f6c63430008210033","linkReferences":{}},"methodIdentifiers":{"CLAWD()":"b59b7f47","DEAD()":"03fd2a45","FEE_USDC_WETH()":"9ca95480","FEE_WETH_CLAWD()":"9a88c17e","ROUTER()":"32fe7b26","USDC()":"89a30271","WETH()":"ad5c4648","execute()":"61461954"},"id":25}